S01000004144435F6C6162342E737265638A
S11300000C9434000C943E000C943E000C943E007E
S11300100C943E000C943E000C943E000C943E0064
S11300200C943E000C943E000C943E000C943E0054
S11300300C943E000C943E000C943E000C943E0044
S11300400C943E000C943E000C943E000C943E0034
S11300500C943E000C943E000C943E000C943E0024
S11300600C943E000C943E0011241FBECFEFD8E048
S1130070DEBFCDBF0E9464000C9470000C9400009D
S113008082E480937C00EAE7F0E0808184688083E6
S113009010927B000895ECE7F0E09081907F9083CC
S11300A09081892B8083EAE7F0E0808180618083FE
S11300B080818064808380917A0084FFFCCF80916A
S11300C078009091790008950E94400082E00E9497
S11300D04B0083EF91E00197F1F700C00000F6CFE9
S10700E0F894FFCFBE
S9030000FC
