:100000000C9434000C943E000C943E000C943E0082
:100010000C943E000C943E000C943E000C943E0068
:100020000C943E000C943E000C943E000C943E0058
:100030000C943E000C943E000C943E000C943E0048
:100040000C943E000C943E000C943E000C943E0038
:100050000C943E000C943E000C943E000C943E0028
:100060000C943E000C943E0011241FBECFEFD8E04C
:10007000DEBFCDBF0E9440000C94B5000C94000080
:10008000CF93DF93CDB7DEB7CF57D1090FB6F89432
:10009000DEBF0FBECDBF198282E090E09B838A83D2
:1000A0001EC08A819B810E947500882399F08981F6
:1000B000882F90E0880F991F9E012F5F3F4F820F7E
:1000C000931F03962A813B81FC0131832083898120
:1000D0008F5F89838A819B8101969B838A838A8132
:1000E0009B818D329140E8F2FFCFCF93DF9300D018
:1000F00000D0CDB7DEB79C838B8382E090E09A83FB
:10010000898310C08B819C8129813A81B9010E9429
:10011000A100892B11F480E00DC089819A8101969C
:100120009A83898329813A818B819C812817390799
:1001300048F381E00F900F900F900F90DF91CF91D7
:100140000895AA1BBB1B51E107C0AA1FBB1FA6171E
:10015000B70710F0A61BB70B881F991F5A95A9F770
:0E01600080959095BC01CD010895F894FFCFD5
:00000001FF
