S01700004763634170706C69636174696F6E322E737265635A
S11300000C9434000C943E000C943E000C943E007E
S11300100C943E000C943E000C943E000C943E0064
S11300200C943E000C943E000C943E000C943E0054
S11300300C943E000C943E000C943E000C943E0044
S11300400C943E000C943E000C943E000C943E0034
S11300500C943E000C943E000C943E000C943E0024
S11300600C943E000C943E0011241FBECFEFD8E048
S1130070DEBFCDBF0E946C000C943F030C940000C3
S1130080CF93DF9300D000D0CDB7DEB79C838B83B2
S113009082E090E09A83898310C08B819C812981BE
S11300A03A81B9010E941C03892B11F480E00DC030
S11300B089819A8101969A83898329813A818B81E6
S11300C09C812817390748F381E00F900F900F9017
S11300D00F90DF91CF910895CF93DF93CDB7DEB723
S11300E0CE58D1090FB6F894DEBF0FBECDBF19822A
S11300F082E090E09B838A831EC08A819B810E9458
S11301004000882399F08981882F90E0880F991FF7
S11301109E012F5F3F4F820F931F42962A813B819E
S1130120FC013183208389818F5F89838A819B814C
S113013001969B838A838A819B818D329140E8F268
S11301408CE090E00E9437011C828BC08C81882F48
S113015090E0880F991F9E012F5F3F4F820F931FDE
S11301604296FC01808191810E9474018CE20E947C
S1130170590180E20E94590180E090E0AAEFB3E4C3
S11301808D839E83AF83B88720E030E04AEF53E449
S11301906D817E818F8198850E948702DC01CB016D
S11301A089879A87AB87BC8720E030E040E85FE32B
S11301B069857A858B859C850E94010288232CF4AD
S11301C081E090E09E878D873FC020E03FEF4FE7BE
S11301D057E469857A858B859C850E94820218166E
S11301E04CF520E030E040E251E46D817E818F8166
S11301F098850E948702DC01CB01BC01CD010E94DD
S11302000602DC01CB019E878D870FC082E390E05C
S1130210988B8F878F8598890197F1F7988B8F87B3
S11302208D859E8501979E878D878D859E85892BDB
S113023069F714C069857A858B859C850E940602BE
S1130240DC01CB019E878D878D859E859A8B898B5A
S113025089899A890197F1F79A8B898B8C818F5FB1
S11302608C839C818981981708F470CF6DCFCF93CC
S1130270DF9300D0CDB7DEB79A83898380EC90E01A
S1130280FC01108281EC90E028E0FC01208382ECE8
S113029090E026E0FC01208384EC90E029813A81FF
S11302A0FC013183208300000F900F90DF91CF91E8
S11302B00895CF93DF931F92CDB7DEB789830000F3
S11302C080EC90E0FC018081882F90E08072992777
S11302D0892BB1F386EC90E02981FC012083000096
S11302E00F90DF91CF910895CF93DF9300D000D08A
S11302F01F92CDB7DEB79D838C834C815D819A01BB
S1130300ADECBCEC0E943003969587959695879545
S113031096958795880F991F9C01220F331F220FF2
S1130320331F820F931F9A01281B390BC90189833C
S11303308C819D819C01ADECBCEC0E9430039695B0
S1130340879596958795969587959D838C834C8103
S11303505D819A01ADECBCEC0E94300396958795C3
S11303609695879596958795880F991F9C01220FDE
S1130370331F220F331F820F931F9A01281B390B3F
S1130380C9018A838C819D819C01ADECBCEC0E94E7
S113039030039695879596958795969587959D8331
S11303A08C834C815D819A01ADECBCEC0E943003DE
S11303B0969587959695879596958795880F991F15
S11303C09C01220F331F220F331F820F931F9A01A8
S11303D0281B390BC9018B838B81805D0E945901D5
S11303E08A81805D0E9459018981805D0E94590142
S11303F000000F900F900F900F900F90DF91CF910E
S113040008950E94350208F481E008950E94610273
S113041088F09F5798F0B92F9927B751B0F0E1F0C1
S1130420660F771F881F991F1AF0BA95C9F714C071
S1130430B13091F00E947B02B1E008950C947B02EC
S1130440672F782F8827B85F39F0B93FCCF38695AA
S113045077956795B395D9F73EF490958095709507
S113046061957F4F8F4F9F4F0895990F0008550F47
S1130470AA0BE0E8FEEF16161706E807F907C0F026
S113048012161306E407F50798F0621B730B840B2E
S1130490950B39F40A2661F0232B242B252B21F408
S11304A008950A2609F4A140A6958FEF811D811DA8
S11304B0089557FD9058440F551F59F05F3F71F050
S11304C04795880F97FB991F61F09F3F79F08795B7
S11304D00895121613061406551FF2CF4695F1DF40
S11304E008C0161617061806991FF1CF86957105D0
S11304F0610508940895E894BB2766277727CB0104
S113050097F908950E94350208F48FEF08950E9428
S11305109A020C940B030E94FD0238F00E9404031B
S113052020F0952311F00C94F4020C94FA02112497
S11305300C947C020E94590270F3959FC1F3950FAD
S113054050E0551F629FF001729FBB27F00DB11D53
S1130550639FAA27F00DB11DAA1F649F6627B00DE3
S1130560A11D661F829F2227B00DA11D621F739FCC
S1130570B00DA11D621F839FA00D611D221F749FDA
S11305803327A00D611D231F849F600D211D822F21
S1130590762F6A2F11249F5750409AF0F1F0882348
S11305A04AF0EE0FFF1FBB1F661F771F881F915075
S11305B05040A9F79E3F510580F00C94F4020C942E
S11305C07C025F3FE4F3983ED4F386957795679574
S11305D0B795F795E7959F5FC1F7FE2B880F911D9F
S11305E09695879597F9089597F99F6780E870E045
S11305F060E008959FEF80EC089500240A94161695
S1130600170618060906089500240A9412161306FC
S1130610140605060895092E0394000C11F488238A
S113062052F0BB0F40F4BF2B11F460FF04C06F5FA6
S11306307F4F8F4F9F4F0895AA1BBB1B51E107C0EB
S1130640AA1FBB1FA617B70710F0A61BB70B881F5E
S1130650991F5A95A9F780959095BC01CD010895ED
S1130660A29FB001B39FC001A39F700D811D1124EF
S1130670911DB29F700D811D1124911D0895F89450
S1050680FFCFA6
S9030000FC
