:100000000C9434000C943E000C943E000C943E0082
:100010000C943E000C943E000C943E000C943E0068
:100020000C943E000C943E000C943E000C943E0058
:100030000C943E000C943E000C943E000C943E0048
:100040000C943E000C943E000C943E000C943E0038
:100050000C943E000C943E000C943E000C943E0028
:100060000C943E000C943E0011241FBECFEFD8E04C
:10007000DEBFCDBF0E9436010C94B1010C9400008C
:10008000CF93DF9300D0CDB7DEB79A83898380EC1E
:1000900090E0FC01108281EC90E028E0FC012083DC
:1000A00082EC90E026E0FC01208384EC90E0298142
:1000B0003A81FC013183208300000F900F90DF9183
:1000C000CF910895CF93DF931F92CDB7DEB7898389
:1000D000000080EC90E0FC018081882F90E080722D
:1000E0009927892BB1F386EC90E02981FC012083CC
:1000F00000000F90DF91CF910895CF93DF9300D050
:1001000000D01F92CDB7DEB79D838C834C815D817B
:100110009A01ADECBCEC0E94A2019695879596954C
:10012000879596958795880F991F9C01220F331FFD
:10013000220F331F820F931F9A01281B390BC9010D
:1001400089838C819D819C01ADECBCEC0E94A20155
:100150009695879596958795969587959D838C839B
:100160004C815D819A01ADECBCEC0E94A201969598
:1001700087959695879596958795880F991F9C01E9
:10018000220F331F220F331F820F931F9A01281B48
:10019000390BC9018A838C819D819C01ADECBCEC3B
:1001A0000E94A20196958795969587959695879535
:1001B0009D838C834C815D819A01ADECBCEC0E94E7
:1001C000A201969587959695879596958795880F20
:1001D000991F9C01220F331F220F331F820F931F81
:1001E0009A01281B390BC9018B838B81805D0E948A
:1001F00062008A81805D0E9462008981805D0E9428
:10020000620000000F900F900F900F900F90DF9101
:10021000CF910895CF93DF9300D000D0CDB7DEB754
:100220009C838B8382E090E09A83898310C08B81CA
:100230009C8129813A81B9010E948E01892B11F498
:1002400080E00DC089819A8101969A8389832981F2
:100250003A818B819C812817390748F381E00F9000
:100260000F900F900F90DF91CF910895CF93DF9370
:10027000CDB7DEB7C058D1090FB6F894DEBF0FBEB8
:10028000CDBF198282E090E09B838A831EC08A8161
:100290009B810E940A01882399F08981882F90E030
:1002A000880F991F9E012F5F3F4F820F931F049667
:1002B0002A813B81FC013183208389818F5F89837F
:1002C0008A819B8101969B838A838A819B818D325F
:1002D0009140E8F28CE090E00E9440001C8219C03E
:1002E0008C81882F90E0880F991F9E012F5F3F4FD0
:1002F000820F931F0496FC01808191810E947D00F2
:100300008CE20E94620080E20E9462008C818F5F1A
:100310008C839C818981981718F3E0CFAA1BBB1BA3
:1003200051E107C0AA1FBB1FA617B70710F0A61BF5
:10033000B70B881F991F5A95A9F780959095BC0116
:10034000CD010895A29FB001B39FC001A39F700D7E
:10035000811D1124911DB29F700D811D1124911DCD
:060360000895F894FFCFA0
:00000001FF
