:100000000C9434000C943E000C943E000C943E0082
:100010000C943E000C943E000C943E000C943E0068
:100020000C943E000C943E000C943E000C943E0058
:100030000C943E000C943E000C944B000C943E003B
:100040000C943E000C943E000C943E000C943E0038
:100050000C943E000C943E000C943E000C943E0028
:100060000C943E000C943E0011241FBECFEFD8E04C
:10007000DEBFCDBF0E9445000C9479000C940000B7
:1000800095B180E2892785B908950E946F008FEFAE
:1000900084B97894FFCF1F920F920FB60F9211245C
:1000A0002F933F934F935F936F937F938F939F9380
:1000B000AF93BF93EF93FF930E944000FF91EF91A6
:1000C000BF91AF919F918F917F916F915F914F9170
:1000D0003F912F910F900FBE0F901F90189582E0C7
:1000E00084BD94E095BD9DE497BD16BC80936E00E1
:0600F0000895F894FFCF13
:00000001FF
