S01700004763634170706C69636174696F6E342E7372656358
S11300000C9434000C9446000C9446000C94460066
S11300100C9446000C9446000C9446000C94460044
S11300200C9446000C9446000C9446000C94460034
S11300300C9446000C9446000C9453000C94460017
S11300400C9446000C9446000C9446000C94460014
S11300500C9446000C9446000C9446000C94460004
S11300600C9446000C94460011241FBECFEFD8E038
S1130070DEBFCDBF21E0A0E0B1E001C01D92A230FF
S1130080B207E1F70E944D000C9494000C94000018
S113009095B180E2892785B908950E948A008FEF7F
S11300A084B97894FFCF1F920F920FB60F92112448
S11300B02F933F934F935F936F937F938F939F936C
S11300C0AF93BF93EF93FF9380910001909101014F
S11300D00196909301018093000180910001909119
S11300E001010A9730F00E94480010920101109219
S11300F00001FF91EF91BF91AF919F918F917F91FB
S11301006F915F914F913F912F910F900FBE0F9080
S11301101F90189582E084BD94E095BD9DE497BD41
S10F012016BC80936E000895F894FFCF85
S9030000FC
