:100000000C9434000C9449000C9449000C94490061
:100010000C9449000C9449000C9449000C9449003C
:100020000C9449000C9449000C9449000C9449002C
:100030000C9449000C9449000C9449000C9449001C
:100040000C9449000C9449000C9449000C9449000C
:100050000C9449000C9449000C9449000C944900FC
:100060000C9449000C94490011241FBECFEFD8E036
:10007000DEBFCDBF11E0A0E0B1E0EEE0F7E002C0EE
:1000800005900D92A631B107D9F70E944B000C9450
:1000900085030C9400000E94840080E895E20E9491
:1000A000880084B18B7F84B94A9BFECF16BC84E064
:1000B00085BD4A99FECF15BC66B570E080E090E042
:1000C0000E945B022DEB37E346E059E30E94E70212
:1000D0009B01AC010E944C019B01AC0160E070E00F
:1000E00080E89FE30E94B8016B017C0180E091E011
:1000F0000E94260141E0C701B6010E9433018FE052
:1001000091E00E942601D0CF14BC15BC16BC089506
:100110009C011092C00088E08093C10086E080932B
:10012000C200C901A0E0B0E0880F991FAA1FBB1F41
:10013000880F991FAA1FBB1F9C01AD01220F331FFF
:10014000441F551F220F331F441F551F60E874E8DA
:100150008EE190E00E945403215031093093C50094
:100160002093C40008959091C00095FFFCCF809328
:10017000C60008950F931F93CF93DF9300D000D054
:1001800000D0CDB7DEB7AC01062F892B21F480E378
:10019000898311E02FC010E02DC09A01ADECBCECBA
:1001A0000E9476039695879596958795969587955F
:1001B0009C01220F331F880F991F880F991F880FEA
:1001C000991F820F931F9A01281B390BC901E1E087
:1001D000F0E0EC0FFD1FE10FF11D805D80839A01BF
:1001E0000E947603AC0156954795569547955695CE
:1001F00047951F5F4115510581F609C0E1E0F0E028
:10020000EC0FFD1FE10FF11D80E380831F5F0117DD
:10021000A8F70FC0101303C08EE20E94B300115064
:10022000E1E0F0E0EC0FFD1FE10FF11D80810E9485
:10023000B3001111EFCF26960FB6F894DEBF0FBEB4
:10024000CDBFDF91CF911F910F910895CF93DF9391
:10025000EC0103C00E94B300219688818111FACF7E
:10026000DF91CF910895CF93DF93D42FC0E007C0E3
:1002700020E030E040E251E40E94E702CF5FCD177A
:10028000B8F30E942A02DC01CB016D2F0E94BA0054
:10029000DF91CF9108955058BB27AA270E94630190
:1002A0000C94AD020E949F0238F00E94A60220F03A
:1002B00039F49F3F19F426F40C949C020EF4E09557
:1002C000E7FB0C949602E92F0E94BE0258F3BA177E
:1002D000620773078407950720F079F4A6F50C945C
:1002E000E0020EF4E0950B2EBA2FA02D0B01B90100
:1002F00090010C01CA01A0011124FF27591B99F09C
:10030000593F50F4503E68F11A16F040A22F232FA7
:10031000342F4427585FF3CF469537952795A795F7
:10032000F0405395C9F77EF41F16BA0B620B730B9E
:10033000840BBAF09150A1F0FF0FBB1F661F771F0F
:10034000881FC2F70EC0BA0F621F731F841F48F4C4
:10035000879577956795B795F7959E3F08F0B0CF4D
:100360009395880F08F09927EE0F97958795089534
:100370000E94CC010C94AD020E94A60258F00E948B
:100380009F0240F029F45F3F29F00C94960251112E
:100390000C94E1020C949C020E94BE0268F3992323
:1003A000B1F3552391F3951B550BBB27AA27621771
:1003B0007307840738F09F5F5F4F220F331F441F7E
:1003C000AA1FA9F335D00E2E3AF0E0E832D09150B2
:1003D0005040E695001CCAF72BD0FE2F29D0660F9F
:1003E000771F881FBB1F261737074807AB07B0E8E2
:1003F00009F0BB0B802DBF01FF2793585F4F3AF0E8
:100400009E3F510578F00C9496020C94E1025F3FF8
:10041000E4F3983ED4F3869577956795B795F7956D
:100420009F5FC9F7880F911D9695879597F9089555
:10043000E1E0660F771F881FBB1F621773078407F1
:10044000BA0720F0621B730B840BBA0BEE1F88F700
:10045000E09508950E94C60288F09F5798F0B92F42
:100460009927B751B0F0E1F0660F771F881F991FE9
:100470001AF0BA95C9F714C0B13091F00E94E002A9
:10048000B1E008950C94E002672F782F8827B85FB9
:1004900039F0B93FCCF3869577956795B395D9F741
:1004A0003EF490958095709561957F4F8F4F9F4F4B
:1004B0000895E89409C097FB3EF490958095709557
:1004C00061957F4F8F4F9F4F9923A9F0F92F96E9A0
:1004D000BB279395F695879577956795B795F11115
:1004E000F8CFFAF4BB0F11F460FF1BC06F5F7F4FB2
:1004F0008F4F9F4F16C0882311F096E911C07723C4
:1005000021F09EE8872F762F05C0662371F096E8CC
:10051000862F70E060E02AF09A95660F771F881F9B
:10052000DAF7880F9695879597F9089597F99F6759
:1005300080E870E060E008959FEF80EC089500246B
:100540000A941616170618060906089500240A9438
:1005500012161306140605060895092E0394000CBE
:1005600011F4882352F0BB0F40F4BF2B11F460FF4D
:1005700004C06F5F7F4F8F4F9F4F089557FD905876
:10058000440F551F59F05F3F71F04795880F97FB57
:10059000991F61F09F3F79F0879508951216130611
:1005A0001406551FF2CF4695F1DF08C01616170640
:1005B0001806991FF1CF8695710561050894089575
:1005C000E894BB2766277727CB0197F908950E9407
:1005D000FA020C94AD020E949F0238F00E94A6021B
:1005E00020F0952311F00C9496020C949C02112497
:1005F0000C94E1020E94BE0270F3959FC1F3950F27
:1006000050E0551F629FF001729FBB27F00DB11D96
:10061000639FAA27F00DB11DAA1F649F6627B00D26
:10062000A11D661F829F2227B00DA11D621F739F0F
:10063000B00DA11D621F839FA00D611D221F749F1D
:100640003327A00D611D231F849F600D211D822F64
:10065000762F6A2F11249F5750409AF0F1F088238B
:100660004AF0EE0FFF1FBB1F661F771F881F9150B8
:100670005040A9F79E3F510580F00C9496020C94CF
:10068000E1025F3FE4F3983ED4F386957795679552
:10069000B795F795E7959F5FC1F7FE2B880F911DE2
:1006A0009695879597F90895A1E21A2EAA1BBB1B70
:1006B000FD010DC0AA1FBB1FEE1FFF1FA217B3072E
:1006C000E407F50720F0A21BB30BE40BF50B661F44
:1006D000771F881F991F1A9469F760957095809508
:1006E00090959B01AC01BD01CF010895A29FB0017F
:1006F000B39FC001A39F700D811D1124911DB29F56
:0E070000700D811D1124911D0895F894FFCFF6
:10070E004672657175656E63792069733A200020B3
:06071E00487A0D0A0000FC
:00000001FF
