S01700004763634170706C69636174696F6E322E737265635A
S11300000C9434000C9451000C9451000C94510045
S11300100C9451000C9451000C9451000C94510018
S11300200C9451000C9451000C9451000C94510008
S11300300C9451000C9451000C945B010C945100ED
S11300400C9451000C9451000C9451000C945100E8
S11300500C9451000C9451000C9451000C945100D8
S11300600C9451000C94510011241FBECFEFD8E022
S1130070DEBFCDBF11E0A0E0B1E0E8E8F3E002C0EC
S113008005900D92AA30B107D9F721E0AAE0B1E0BA
S113009001C01D92A131B207E1F70E947F010C94C7
S11300A0C2010C94000087B1886087B987B1806170
S11300B087B987B1806287B98AB180618AB98AB108
S11300C080628AB98AB180648AB98AB180688AB93F
S11300D00895EF92FF920F931F93CF93DF938C01B8
S11300E09C01369527953695279536952795A5EC49
S11300F0B0E20E94B3017C01F694E794F694E7948D
S1130100F694E794F694E7949801369527953695F6
S11301102795ABE7B4E10E94B301AC01569547952E
S11301209A01ADECBCEC0E94B301FC01F695E79595
S1130130F695E795F695E795CF01880F991FEE0F91
S1130140FF1FEE0FFF1FEE0FFF1FE80FF91FCA017D
S11301508E1B9F0BFC0198010E94B301EC01D69504
S1130160C795D695C795D695C7959E010E94B301AC
S1130170AC01569547955695479556954795CA01AE
S1130180880F991F440F551F440F551F440F551FC7
S1130190480F591FCE01841B950BAC01CE01880F6B
S11301A0991FCC0FDD1FCC0FDD1FCC0FDD1FC80F37
S11301B0D91F0C1B1D0BD701BB27A050BF4F8C911F
S11301C0ABE0B1E08C93FF27E050FF4F80811196A4
S11301D08C9311975527FA01E050FF4F80811296B6
S11301E08C931297F801FF27E050FF4F80811396FC
S11301F08C93DF91CF911F910F91FF90EF90089511
S1130200E0910A01F0E0E55FFE4F408187E018C00D
S1130210242F30E0082E02C0359527950A94E2F782
S113022020FF04C098B1906198B903C098B19F7E33
S113023098B998B1986098B998B1977F98B9815056
S1130240882334F78BB180648BB98BB180628BB90E
S11302508BB180618BB98BB180688BB988B18062B6
S113026088B988B18F7D88B980910A01811104C051
S11302708BB18F7E8BB913C080910A01813021F438
S11302808BB18F7D8BB90BC080910A01823021F430
S11302908BB18F7B8BB903C08BB18F778BB9809176
S11302A00A018F5F80930A0180910A01843010F063
S11302B010920A0108951F920F920FB60F92112403
S11302C02F933F934F935F936F937F938F939F935A
S11302D0AF93BF93EF93FF930E940001FF91EF91BF
S11302E0BF91AF919F918F917F916F915F914F914A
S11302F03F912F910F900FBE0F901F9018950E9461
S113030053000E94A901789480910F0190911001EB
S113031060E00E9469002FE788E391E0215080406B
S11303209040E1F700C0000080910F01909110010E
S113033001969093100180930F0180910F01909189
S113034010018031974200F31092100110920F01B6
S1130350DBCF82E084BD94E095BD80936E008DE494
S113036087BD16BC0895A29FB001B39FC001A39F8F
S1130370700D811D1124911DB29F700D811D1124DA
S10B0380911D0895F894FFCFCC
S10D03883F065B4F666D7D077F6F33
S9030000FC
