S01700004763634170706C69636174696F6E322E737265635A
S11300000C9434000C9449000C9449000C9449005D
S11300100C9449000C9449000C9449000C94490038
S11300200C9449000C9449000C9449000C94490028
S11300300C9449000C9449000C9449000C94490018
S11300400C9449000C9449000C9449000C94490008
S11300500C9449000C9449000C9449000C944900F8
S11300600C9449000C94490011241FBECFEFD8E032
S1130070DEBFCDBF11E0A0E0B1E0E0E4F1E002C0FA
S113008005900D92AA30B107D9F70E944B000C9449
S11300909E000C9400000E945300C09107018C2F15
S11300A00E946900FCCF87B1886087B987B18061FD
S11300B087B987B1806287B98AB180618AB98AB108
S11300C080628AB98AB180648AB98AB180688AB93F
S11300D008959BB19F779BB99BB190649BB99BB1E9
S11300E090629BB99BB190619BB998B1977F98B985
S11300F098B19F7D98B997E018C0282F30E0092E59
S113010002C0359527950A94E2F720FF04C028B170
S1130110206128B903C028B12F7E28B928B12860EE
S113012028B928B1277F28B99150992334F788B189
S1130130806288B988B18F7D88B90895F894FFCF1B
S10D01403F065B4F666D7D877F6FFD
S9030000FC
