S01700004763634170706C69636174696F6E312E737265635B
S11300000C9434000C9449000C9449000C9449005D
S11300100C9449000C9449000C9449000C94490038
S11300200C9449000C9449000C9449000C94490028
S11300300C9449000C9449000C9449000C94490018
S11300400C9449000C9449000C9449000C94490008
S11300500C9449000C9449000C9449000C944900F8
S11300600C9449000C94490011241FBECFEFD8E032
S1130070DEBFCDBF11E0A0E0B1E0EAE0F1E002C0F4
S113008005900D92AA30B107D9F70E945D000C9437
S113009083000C940000E82FF0E0E050FF4F8081D3
S11300A08F7388B9808186FF04C085B1806185B96A
S11300B0089585B18F7E85B9089583E384B98FE36C
S11300C087B91AB885B1816085B985B18D7F85B945
S11300D0D0E001C0D0E08D2F0E944B00C0E00DC0E5
S11300E01F9904C080E00E944B00D0E08FE493ECA1
S11300F00197F1F700C00000CF5FCA3088F3DF5FDB
S10D0100DA3040F7E8CFF894FFCF9F
S10D010A3F065B4F666D7D077F6FB3
S9030000FC
