:100000000C9434000C9449000C9449000C94490061
:100010000C9449000C9449000C9449000C9449003C
:100020000C9449000C9449000C9449000C9449002C
:100030000C9449000C9449000C9449000C9449001C
:100040000C9449000C9449000C9449000C9449000C
:100050000C9449000C9449000C9449000C944900FC
:100060000C9449000C94490011241FBECFEFD8E036
:10007000DEBFCDBF11E0A0E0B1E0E4E0F1E002C0FE
:1000800005900D92AA30B107D9F70E944B000C944D
:1000900080000C940000CF93DF93CDB7DEB72A9792
:1000A0000FB6F894DEBF0FBECDBF83E384B98FE3F4
:1000B00087B91AB885B1816085B985B18D7F85B959
:1000C0008AE0E0E0F1E0DE01119601900D928A9560
:1000D000E1F72FE78AE196E0215080409040E1F778
:1000E00000C0000089818F7388B9898186FF04C0B0
:1000F00085B1806185B9EDCF85B18F7E85B9E9CFB6
:04010000F894FFCFA1
:0A0104003F065B4F666D7D077F6FBD
:00000001FF
